:03020000020206F1
:03025F0002020395
:03020300021AEFED
:0400000002020032C6
:01000B0032C2
:0100130032BA
:01001B0032B2
:0100230032AA
:01002B0032A2
:01003300329A
:01003B003292
:01004300328A
:01004B003282
:01005300327A
:01005B003272
:01006300326A
:0101000032CC
:0101040032C8
:0101080032C4
:01010C0032C0
:0101100032BC
:0101140032B8
:0101180032B4
:0101200032AC
:0101240032A8
:0101280032A4
:01012C0032A0
:01013000329C
:010134003298
:010138003294
:01013C003290
:01014000328C
:010148003284
:01014C003280
:01015000327C
:010154003278
:010158003274
:01015C003270
:01016000326C
:01017000325C
:010174003258
:010178003254
:01017C003250
:01018000324C
:010184003248
:010188003244
:01018C003240
:01019000323C
:010194003238
:010198003234
:01019C003230
:0101A000322C
:0101A8003224
:0101AC003220
:0101B000321C
:0101B4003218
:0101B8003214
:2002620022AE82AF837C007D00C3EC9EED9F501B7AB07B04EA24FFF8EB34FFF988028903E0
:20028200E84970F00CBC00E10D80DE22AE82AF837C007D00C3EC9EED9F501B7A0A7B00EA0D
:2002A20024FFF8EB34FFF988028903E84970F00CBC00E10D80DE2275AF0790E67BE090E6BB
:2002C2007CF0DAF3222290E6A3E0FF74FE5FF090E6A5E0FF74FE5FF090E6047480F00000CD
:2002E200000090E61AE4F00000000090E6047406F00000000090E6497486F000000000907B
:20030200E6497486F00000000090E6497486F00000000090E6497486F00000000090E61AE0
:200322007411F00000000090E604E4F00000000090E6047480F00000000090E618E4F00038
:2003420000000090E6047402F00000000090E6187409F00000000090E604E4F00000000072
:2003620022C280C281C28775B28375B40090E60B7403F00000000090E60174E3F000000012
:20038200001202C890E670E4F00000000090E609E4F00000000090E6207402F00000000076
:2003A20090E621E4F00000000090E60274C8F00000000090E603740AF00000000090E6309F
:2003C2007440F00000000090E631E4F00000000022AF8275B4FF8FA0D280C28022AF8275F6
:2003E200B4008F068F047D00AA157B00EA2CFCEB3DFD8E027B00C3EA9CEB64808DF063F03E
:200402008095F05014EE2440F582E434E7F583E5A0F0D280C2800E80CB2290E68AE4F09049
:200422003A19E090E68BF0227582881203D37F0074022F24B8F582E434E6F583E0F5A0D2D9
:2004420080C2800FBF040040E77515047582001203DF75828A1203D3751501758204120362
:20046200DF90E745E4F07582901203D37515027582060203DFAF827E00ADA0D280C280EDB2
:20048200700B8E050EBDFF0280030080EC903A0DE0FEB5070122758281C0071203D3D007FF
:2004A2008F82120C307582800203D37F00BFFF00500D90E678E0FE13920040030F80EE9031
:2004C200E678E0FF20E204EF20E10D90E678E0FF74404FF075820122758200227F00BFFFAA
:2004E20000500D90E678E0FE13920140030F80EE90E678E0FF30E20D90E678E0FF74404FAF
:20050200F075820122758200227F0090E678E0FE20E204758200220FBFFF0040EE75820159
:20052200227F0090E678E0FE20E604758200220FBFFF0040EE75820122AF82C3E49508E4BB
:2005420033FE90E678E0FD74804DF0C007C00612050BD006D00790E679EFF0C007C00612A3
:2005620004ADE582D006D0077014E509600C90E678E0FD74404DF012052375820022EE6079
:200582001090000AC007C00612028ED006D00780B1E509600990E678E0FF74404FF0758294
:2005A2000122AE82AF837D00E50C7003F582227508647509007582A2C007C006C0051205D9
:2005C2003BE582D005D006D00760030206B3AC0B90E679ECF0C007C006C0051204ADE582D9
:2005E200D005D006D00760030206B390E679E50AF0C007C006C0051204ADE582D005D00664
:20060200D00760030206B390E678E0FC74404CF0C007C006C00512052390E678E0FC7480DF
:200622004CF012050B90E67974A3F01204ADE582D005D006D007707990E679E08E828F83DE
:20064200F0C007C006C0051204DEE582D005D006D007705DFCC3EC950C502A90E679E08E89
:20066200828F83F0A3AE82AF83C007C006C005C0041204DEE582D004D005D006D007703187
:200682000C8C0580D090E678E0FF74204FF090E679E0C0051204DEE582D005701490E67895
:2006A200E0FF74404FF090E679E0C005120523D0058D8222AE82AF837D00E50F7003F582D5
:2006C200227508647509007582A2C007C006C00512053BE582D005D006D00760030207788D
:2006E200AC0E90E679ECF0C007C006C0051204ADE582D005D006D007600302077890E679A2
:20070200E50DF0C007C006C0051204ADE582D005D006D0077060FCC3EC950F50498E828FA0
:2007220083E090E679F08E828F83E0FBA3AE82AF83903A04E02BF0903A02E0FAA3E0FB90F6
:200742003A0274012AF0E43BA3F0C007C006C005C0041204ADE582D004D005D006D0077014
:20076200150C8C0580B190E678E0FF74404FF0C005120523D0058D8222903A19E0FF903A43
:2007820000E0F50AA3E0F50B8F0C90E740C0071205A4AE82D0077D00903A00E0FBA3E0FC79
:2007A200903A00EF2BF0ED3CA3F08E8222AF82903A00E0F50DA3E0F50E8F0F90E740C007F6
:2007C2001206B6D0077E00903A00E0FCA3E0FD903A00EF2CF0EE3DA3F022AE82AF837D003A
:2007E200E5117003F582227508647509007582A6C007C006C00512053BE582D005D006D073
:200802000760030208CE90E679E510F0C007C006C0051204ADE582D005D006D0076003025D
:2008220008CE90E678E0FC74404CF0C007C006C00512052390E678E0FC74804CF012050B7E
:2008420090E67974A7F01204ADE582D005D006D007707990E679E08E828F83F0C007C00699
:20086200C0051204DEE582D005D006D007705DFCC3EC9511502A90E679E08E828F83F0A3B8
:20088200AE82AF83C007C006C005C0041204DEE582D004D005D006D00770310C8C0580D09F
:2008A20090E678E0FF74204FF090E679E0C0051204DEE582D005701490E678E0FF74404F7E
:2008C200F090E679E0C005120523D0058D8222AE82AF837D00E5137003F582227508647519
:2008E20009007582A6C007C006C00512053BE582D005D006D00760030209C490E679E512AB
:20090200F0C007C006C0051204ADE582D005D006D00760030209C4AC127B00C3EB951340E6
:20092200030209B48E828F83E0FAA3AE82AF8390E679EAF0C007C006C005C004C00312043A
:20094200ADE582D003D004D005D006D00770730C8C120B8B05EC20E3C2C3EB951350BC908D
:20096200E678E0FA74404AF0C007C006C005C004C0031205237508647509007582A6120529
:200982003BE582D003D004D005D006D007703390E679ECF0C007C006C005C004C00312042D
:2009A200ADE582D003D004D005D006D007701302091D90E678E0FF74404FF0C0051205238E
:2009C200D005903A05E512F08D8222903A19E0FF903A05E0F5108F1190E740C0071207DCD0
:2009E200AE82D007903A05E02FF08E822275B11F75B6FF903A0EE4F0903A0DF0903A0F74BF
:200A020010F0903A10F0903A11C4F02290E6017480F00000000090E670E4F090E671F0D29B
:200A2200A243B40453B2BF53B4FDC2A343B40843B2AEC28543808E903A11E0F4FF53070F99
:200A4200903A10E04FF5B175B6FF900001120263C287C281903A10E0FF740F4FF5B153B4EF
:200A6200FB7E007F0020A210C3EE94FFEF94FF50070EBE00F00F80ED30A2047FC880027F37
:200A820064903A0CEFF0903A08E4F0A3F0A3F0A3F0903A07F022020A0E020363903A0CE0C1
:200AA2002416F07F00D281C2810FBFFF0040F6D287D284C284D284C284D284C284D284C2AD
:200AC2008453B27153B4F775B6F0903A11E0FF55B1FEB50703120A9B903A0FE0FF740F4F43
:200AE200F5B175B6FF2285B31475B3FF903A19E0FE903A08E0FAA3E0FBA3E0FCA3E0FD8E17
:200B02000079007E007F00903A08E82AF0E93BA3F0EE3CA3F0EF3DA3F090E68BE06022FAF9
:200B2200759B40759AE775AF07903A07E0F990E67BE0F590D28129F9C281DAF5903A07E901
:200B4200F08514B390E68BE0FFBF40005003020A9E2290E60174C2F090E6F3E4F090E6C346
:200B6200F090E6C1F090E6C27420F090E6C0744EF090E6F4E4F0759B1A7E1A7F3A8F068EDC
:200B82009A759E607E607FE48F068E9DC0027A201202B9D00290E6C6E4F090E6C77410F089
:200BA20090E6C8E4F090E6C9F090E6CAF090E6CBF090E6CCF090E6CDF090E60B04F00000B7
:200BC200000090E6047480F00000000090E6047406F00000000090E604E4F00000000090F3
:200BE200E61AE4F00000000090E61A7410F00000000090E6E27401F00000000090E6CE74A6
:200C020001F00000000090E6CFE4F00000000090E6D0E4F00000000090E6D1E4F000000093
:200C22000090E6E474FFF000000000C28322AF82903A0DE0FE903A0EF0903A0D74035FF043
:1F0C42008FF005F07410800225E0D5F0FBFF903A0FF0903A10EFF0740FF5B14FF5B12293
:20006C0028015A5445580A0F00000001E300000000000000000000000000000000003030A3
:08008C003030303030303030EC
:200C61002290E678E0FF74804FF012050B90E6797490F01204ADE58260012290E6797444F8
:200C8100F01204ADE58260012290E6797414F090E678E0FF74404FF0120523E5826001226B
:200CA100900079E04401F02290E683E4F07420F003F07430F07401F07421F07411F0743117
:200CC100F07412F07432F07406F07426F022AF82E51624E0500375161F90E6BFE0701090AF
:200CE100E6BEE0FEC39516500690E6BEE0F51675AF078F9B85159A7E407FE7EE04F59E7EDE
:200D0100407FE70EBE00010F8F9D90E67C7403F07F00C3EF9516500E90E67BE0FE90E67CD0
:200D2100F0E4F00F80ECE5160425E0FF90E740F090E7417403F090E68AE4F090E68BEFF0F6
:200D410022903A17E0FEA3E0FFC374409EE49F50067C407D0080048E048F05903A19ECF09F
:200D61007D00903A17EEC39CF0EF9DA3F022903A5AE0FFBF3103020E36BF320122BF340350
:200D8100020E39BF3503020E4EBF3903020E09BF3C03020E2DBF5103020E6ABF8002803DDA
:200DA100BF82028012BF86028044BF8B028019BF8E02804B020E8F7582821203D390E6BA23
:200DC100E0F5A0D280C280227582811203D375828B1203D31202C87582800203D390E6BAC2
:200DE100E060047F8080027F818F820203D390E6BAE060047F8680027F878F820203D390CA
:200E0100E6BAE0F582020477903A04E4F0903A02F0A3F090E6BBE0FE7F0090E6BAE0FD7C55
:200E210000903A00ED4FF0EC4EA3F02290E6BAE0903A05F022020A98120A9890E6A5E0FF89
:200E410074FE5FF090E6F574FFF0020B54D28390E6F574FFF00000000090E601E0FF74F0C4
:200E61005FF000000000020A9E90E6BCE0FFBF0108903A1074F0F0800990E6BAE0F582124F
:200E81000C30903A10E0C4540F903A11F02290E6A0E0FF74014FF022C021C0E0C0F0C08209
:200EA100C083C007C006C005C004C003C002C001C000C0D075D00090E6B9E0FF903A5AF0DB
:200EC10090E6B57401F090E6B9E0FF24F3500302126AEFF5F0240B83F582E5F0241183F50C
:200EE10083E473FEB26A326A6ACDFF011116262B0E0F121012121011121212121290E6B8A6
:200F0100E0FFBF8002800DBF8102801EBF8202802F02126A90E740E4F090E741F090E68AA0
:200F2100F090E68B7402F002126A90E740E4F090E741F090E68AF090E68B7402F002126AD3
:200F410090E6BCE0FF600FBF01028019BF80028005BF812F801E90E6A0E0FF53070190E71B
:200F610040EFF0803A90E6A1E0FF53070190E740EFF0802B90E6A2E0FF53070190E740EF0D
:200F8100F0801C90E6BCE0C31314540324A3F582E434E6F583E0FF53070190E740EFF0905D
:200FA100E741E4F090E68AF090E68B7402F002126A90E6B8E0FFBF0202800302126A90E618
:200FC100BAE0600302126A90E6BCE0FF600FBF01028016BF80028005BF8126801890E6A0E3
:200FE100E0FF74FE5FF002126A90E6A1E0FF74FE5FF002126A90E6A2E0FF74FE5FF00212D1
:201001006A90E6BCE0C31314540324A3FEE434E6FF90E6BCE0C31314540324A3F582E434A7
:20102100E6F583E0FD5305FE8E828F83EDF002126A90E6B8E0FFBF0202800302126A90E65A
:20104100BAE0600302126A90E6BCE0FF600FBF01028015BF80028005BF8123801690E6A068
:20106100E0FF74014FF0804390E6A1E0FF74014FF0803890E6A2E0FF74014FF0802D90E6E9
:20108100BCE0C31314540324A3FEE434E6FF90E6BCE0C31314540324A3F582E434E6F583A9
:2010A100E0FD4305FE8E828F83EDF090E6BCE05480C423541FFF90E6BCE0FE740F5E420794
:2010C10090E683EFF074204FF002126A90E6BBE0FFBF01028019BF02028028BF0302805379
:2010E100BF06030211B1BF07030211C50211F47E287F1B8F0690E6B3EEF090E6B47428F029
:2011010002126A90E680E0FF30E7147E447F1B8F0690E6B3EEF090E6B47444F002126A7E8A
:20112100747F1B8F0690E6B3EEF090E6B47474F002126A90E6BAE0FFBF0102800FBF020261
:20114100801EBF0302802DBF0452803C7582047E047F1B8F068E15751605120CCF02126A64
:201161007582097E097F1B8F068E15751617120CCF02126A75828A7E8A7F008F068E157553
:20118100160A120CCF02126A7582207E207F1B8F068E15751608120CCF02126A7EA47F1B82
:2011A1008F0690E6B3EEF090E6B474A4F002126A7E3A7F1B8F0690E6B3EEF090E6B4743A1C
:2011C100F002126A90E680E0FF30E7147E747F1B8F0690E6B3EEF090E6B47474F002126AF8
:2011E1007E447F1B8F0690E6B3EEF090E6B47444F0807690E6A0E0FF74014FF0806B8069B1
:2012010090E740E4F090E68AF090E68B04F08059120CA9805490E740E4F090E68AF090E6F8
:201221008B04F08044120CA9803F90E6B8E0FFBF823790E6BCE0C31314540375F002A424DD
:201241005CF582743A35F0F583E4F0A3F090E685E090E740F090E684E0FF90E741F090E68F
:201261008AE4F090E68B7402F090E6B8E0FFBF400302154EBFC002800302157890E6BFE08C
:20128100FE7F0090E6BEE0FD7C00903A17ED4FF0EC4EA3F0120D4290E6B9E0FFBF22028097
:2012A10047BF300302140DBF330302146DBF380302136CBF3A03021395BF3B030213D4BF93
:2012C1003D030213EDBF5003021485BF58030214A6BF8402802FBF85028042BF880280552E
:2012E100BF8C02805902154390E6B5E4F090E68AF090E68B7428F090E6B3E4F090E6B47456
:201301006CF00215787582841203D3903A19E0F5157582001203DF12041C02157875828589
:201321001203D3903A19E0F5157582001203DF12041C02157812042A12041C02157890E6D4
:20134100BAE0F5821204777582841203D37515067582001203DF7582851203D375150275AB
:2013610082061203DF12041C02157890E6BBE0FE7F0090E6BAE0FD7C00903A00ED4FF0EC36
:201381004EA3F090E68AE4F012077BE58290E68BF0021578903A02E0FEA3E090E740EEF05A
:2013A100903A02E0A3E090E741F0903A04E090E742F07508007509017582A212053BAF82E6
:2013C10090E743EFF090E68AE4F090E68B7404F002157890E6BAE0903A05F090E68AE4F004
:2013E1001209CDE58290E68BF00215787508007509017582A612053BAF8290E740EFF090DB
:20140100E68AE4F090E68B04F0021578759B077E077F3A8F068E9A759E417E417FE78F06E3
:201421008E9DC0027A061202B9D00275B6F0903A11E0FF55B1FEB5071490E740E4F0903AA1
:201441000FE0FF740F4FF5B175B6FF800990E7407401F0120A0E90E747E4F090E748F0905B
:20146100E68AF090E68B7409F002157890E7407406F090E741E4F090E68AF090E68B7402FA
:20148100F002157890E7407403F0903A0DE0FF90E741F090E742E4F090E68AF090E68B745E
:2014A10003F002157890E678E0FF74804FF012050B90E6797491F01204AD90E7407401F0C4
:2014C10090E679E090E741F01204DE90E679E090E741F01204DE90E679E090E742F01204A7
:2014E100DE90E679E090E743F01204DE90E679E090E744F01204DE90E679E090E741F012A9
:2015010004DE90E679E090E742F01204DE90E678E0FF74204FF090E679E090E743F012044D
:20152100DE90E678E0FF74404FF090E679E090E744F012052390E68AE4F090E68B7405F01A
:20154100803590E6A0E0FF74014FF0802A90E6BFE0700690E6BEE06016903A5B7401F09053
:20156100E68BE4F05391EF90E65D7401F0801A120D6F90E68BE4F05391EF90E65D7401F012
:2015810090E6A0E0FF74804FF0D0D0D000D001D002D003D004D005D006D007D083D082D071
:2015A100F0D0E0D02132C0E0C082C0835391EF90E65D7402F0D083D082D0E032C0E0C082CD
:2015C100C0835391EF90E65D7404F0D083D082D0E032C0E0C082C0835391EF90E65D7408EB
:2015E100F0D083D082D0E032C0E0C082C0835391EF90E65D7410F0D083D082D0E032C0E00D
:20160100C082C0835391EF90E65D7420F0D083D082D0E032C0E0C082C0835391EF90E65DC8
:201621007440F0D083D082D0E032C021C0E0C0F0C082C083C007C006C005C004C003C0022D
:20164100C001C000C0D075D000C2E8120D42903A5AE0FFBF30028060BF3302805BBF38028C
:20166100802DBF3A028051BF3B028033BF3D028047BF50028042BF5802803DBF84028038D6
:20168100BF85028033BF8802802EBF8C22802990E68AE4F012077BE58290E68BF08019905A
:2016A100E68AE4F01209CDE58290E68BF0800990E68AE4F090E68BF05391EF90E65F74013A
:2016C100F0D2E8D0D0D000D001D002D003D004D005D006D007D083D082D0F0D0E0D02132EB
:2016E100C021C0E0C0F0C082C083C007C006C005C004C003C002C001C000C0D075D000C280
:20170100E8903A5BE06020903A5BE4F090E6BFE0FE7F0090E6BEE0FD7C00903A17ED4FF036
:20172100EC4EA3F0120D6F120D42903A5AE0FFBF31028054BF32028049BF3402804ABF35B4
:20174100028045BF3902801BBF3C028021BF51028035BF80028031BF8202802CE4BF8601BC
:2017610004802590E68BE0F5821207AF801A903A05E0F51290E68BE0F51390E7401208D1C4
:201781008006120AE880010090E68BE4F05391EF90E65F7402F0903A17E0F5F0A3E045F0FC
:2017A100700990E6A0E0FF74804FF0D2E8D0D0D000D001D002D003D004D005D006D007D0C1
:2017C10083D082D0F0D0E0D02132C0E0C082C0835391EF90E65F7404F0D083D082D0E032E4
:2017E100C0E0C082C0835391EF90E65F7408F0D083D082D0E032C0E0C082C0835391EF90A0
:20180100E65F7410F0D083D082D0E032C0E0C082C0835391EF90E65F7420F0D083D082D0C1
:20182100E032C0E0C082C0835391EF90E65F7440F0D083D082D0E032C0E0C082C083539194
:20184100EF90E65F7480F0D083D082D0E032751000751103903A121207DC903A12E0FFBFFF
:201861004324903A13E0FFBF441C903A14E0FFBF3014903A067401F075101075110A90007B
:201881008A1207DC8005903A06E4F07F00EF248AF582E43400F583E0FEBE30550FBF0A0083
:2018A10040EB7510FB751105903A121207DC7F007E00EE2412F582E4343AF583E0FDEF24CE
:2018C1008AFBE43400FCEDC4540F901BA893FA8B828C83F00FEF248AFBE43400FC740F5DD3
:2018E100901BA893FD8B828C83F00F0EBE050040C12290E680E0FF74084FF090E600741269
:20190100F0900002120263538EF81209EFC2AFC2E89000437402F090004414F09000457475
:20192100B8F090E668E0FF74084FF09001007402F07E997F0E8F05900101EDF0900102EE67
:20194100F09001047402F07EA77F158F05900105EDF0900106EEF09001087402F07EBD7FAD
:20196100158F05900109EDF090010AEEF090010C7402F07ED37F158F0590010DEDF0900145
:201981000EEEF09001107402F07EE97F158F05900111EDF0900112EEF09001147402F07E3B
:2019A100FF7F158F05900115EDF0900116EEF09001187402F07E157F168F05900119EDF0A5
:2019C10090011AEEF09001207402F07E2B7F168F05900121EDF0900122EEF0900124740249
:2019E100F07EE17F168F05900125EDF0900126EEF09001287402F07ECB7F178F05900129FA
:201A0100EDF090012AEEF090012C7402F07EE17F178F0590012DEDF090012EEEF0900130AA
:201A21007402F07EF77F178F05900131EDF0900132EEF09001347402F07E0D7F188F0590EF
:201A41000135EDF0900136EEF09001387402F07E237F188F05900139EDF090013AEEF090F2
:201A6100013C7402F07E397F188F0590013DEDF090013EEEF05391EF90E65D747FF090E689
:201A81005CE0FF747F4FF090E65F74FFF090E65EF0D2E8D2AF90E61174A0F0000000009086
:201AA100E61074A0F00000000090E61274E0F00000000090E613E4F00000000090E6147404
:201AC100A0F00000000090E615E4F00000000012184F120C6290E680E0FF74824FF0900083
:1F1AE1000A12026390E680E0FF74F75FF0221218F3C280C281C28775B28375B40080FE78
:201B04005A54455800696E6F7574747261666669632055464D20312E313579006465666172
:201B2400756C740012010002FFFFFF401A2200010000010203010A060002FFFFFF40010066
:201B440009022E00010104C0320904000004FFFFFF000705810200020007050102000200A0
:201B64000705820200020007050602000200000009022E00010104C0320904000004FFFF79
:201B8400FF0007058102400000070501024000000705820240000007050602400000000000
:201BA4000403000030313233343536373839414243444546000000000188010101010107E3
:201BC40002070202020202002000000000000020003600000000003F02019001010101079B
:201BE40002020702020202002000000000000020000036000000003FFF000000000000001A
:021C04000000DE
:06023500E478FFF6D8FD9D
:20021300794DE94400601B7A01901BB9781775923AE493F2A308B800020592D9F4DAF2753B
:0202330092FF38
:20023B007800E84400600A790075923AE4F309D8FC7817E84400600C7901903A00E4F0A345
:04025B00D8FCD9FAF8
:0D020600758121121B00E5826003020203D6
:041B000075820022C8
:00000001FF
