:03020000020206F1
:03025F0002020395
:03020300021B2AB1
:0400000002020032C6
:01000B0032C2
:0100130032BA
:01001B0032B2
:0100230032AA
:01002B0032A2
:01003300329A
:01003B003292
:01004300328A
:01004B003282
:01005300327A
:01005B003272
:01006300326A
:0101000032CC
:0101040032C8
:0101080032C4
:01010C0032C0
:0101100032BC
:0101140032B8
:0101180032B4
:0101200032AC
:0101240032A8
:0101280032A4
:01012C0032A0
:01013000329C
:010134003298
:010138003294
:01013C003290
:01014000328C
:010148003284
:01014C003280
:01015000327C
:010154003278
:010158003274
:01015C003270
:01016000326C
:01017000325C
:010174003258
:010178003254
:01017C003250
:01018000324C
:010184003248
:010188003244
:01018C003240
:01019000323C
:010194003238
:010198003234
:01019C003230
:0101A000322C
:0101A8003224
:0101AC003220
:0101B000321C
:0101B4003218
:0101B8003214
:2002620022AE82AF837C007D00C3EC9EED9F501B7AB07B04EA24FFF8EB34FFF988028903E0
:20028200E84970F00CBC00E10D80DE22AE82AF837C007D00C3EC9EED9F501B7A0A7B00EA0D
:2002A20024FFF8EB34FFF988028903E84970F00CBC00E10D80DE2275AF0790E67BE090E6BB
:2002C2007CF0DAF3222290E6A3E0FF74FE5FF090E6A5E0FF74FE5FF090E6047480F00000CD
:2002E200000090E61AE4F00000000090E6047406F00000000090E6497486F000000000907B
:20030200E6497486F00000000090E6497486F00000000090E6497486F00000000090E61AE0
:200322007411F00000000090E604E4F00000000090E6047480F00000000090E618E4F00038
:2003420000000090E6047402F00000000090E6187409F00000000090E604E4F00000000072
:200362002275B283C280C281C28790E60B7403F00000000090E60174E3F000000000120227
:20038200C890E670E4F00000000090E609E4F00000000090E6207402F00000000090E621F3
:2003A200E4F00000000090E60274C8F00000000090E603740AF00000000090E6307440F092
:2003C2000000000090E631E4F00000000022AF8275B4FFC287C2808FA0D28000C28022AF06
:2003E2008275B400D287C2818F068F047D00AA157B00EA2CFCEB3DFD8E027B00C3EA9CEB5F
:2004020064808DF063F08095F05015EE2440F582E434E7F583E5A0F0D28100C2810E80CA19
:20042200C2872290E68AE4F0903A19E090E68BF0227582881203D0C2817F0074022F24B8FE
:20044200F582E434E6F583E0F5A0D28100C2810FBF040040E67515047582001203E1758238
:200462008A1203D07515017582041203E190E745E4F07582A11203D07515027582060203F4
:20048200E1AF82903A0DE0FEB50701227E00758284C007C0061203D0D006D00775B400D2A1
:2004A20087C281D28100C281E5A0E5A0700F8E050EBDFF028007000000000080D1758281A2
:2004C200C0071203D0D0078F82120C897582800203D0AF82903A0DE0FEB5070280058F8259
:2004E2001204837582841203D07515067582001203E17582851203D0751502758206120385
:20050200E10204257F00BFFF00500D90E678E0FE13920040030F80EE90E678E0FF20E2042F
:20052200EF20E10D90E678E0FF74404FF075820122758200227F00BFFF00500D90E678E061
:20054200FE13920140030F80EE90E678E0FF30E20D90E678E0FF74404FF075820122758278
:2005620000227F0090E678E0FE20E204758200220FBFFF0040EE758201227F0090E678E08B
:20058200FE20E604758200220FBFFF0040EE75820122AF82C3E49508E433FE90E678E0FDCE
:2005A20074804DF0C007C006120564D006D00790E679EFF0C007C006120506E582D006D0CE
:2005C200077014E509600C90E678E0FD74404DF012057C75820022EE601090000AC007C04D
:2005E2000612028ED006D00780B1E509600990E678E0FF74404FF075820122AE82AF837D63
:2006020000E50C7003F582227508647509007582A2C007C006C005120594E582D005D006D4
:20062200D007600302070CAC0B90E679ECF0C007C006C005120506E582D005D006D007602F
:200642000302070C90E679E50AF0C007C006C005120506E582D005D006D007600302070CE2
:2006620090E678E0FC74404CF0C007C006C00512057C90E678E0FC74804CF012056490E6EE
:200682007974A3F0120506E582D005D006D007707990E679E08E828F83F0C007C006C005B6
:2006A200120537E582D005D006D007705DFCC3EC950C502A90E679E08E828F83F0A3AE82BA
:2006C200AF83C007C006C005C004120537E582D004D005D006D00770310C8C0580D090E6C1
:2006E20078E0FF74204FF090E679E0C005120537E582D005701490E678E0FF74404FF090DC
:20070200E679E0C00512057CD0058D8222AE82AF837D00E50F7003F58222750864750900FC
:200722007582A2C007C006C005120594E582D005D006D00760030207D1AC0E90E679ECF076
:20074200C007C006C005120506E582D005D006D00760030207D190E679E50DF0C007C006A4
:20076200C005120506E582D005D006D0077060FCC3EC950F50498E828F83E090E679F08E85
:20078200828F83E0FBA3AE82AF83903A04E02BF0903A02E0FAA3E0FB903A0274012AF0E4B7
:2007A2003BA3F0C007C006C005C004120506E582D004D005D006D00770150C8C0580B19096
:2007C200E678E0FF74404FF0C00512057CD0058D8222903A19E0FF903A00E0F50AA3E0F5A6
:2007E2000B8F0C90E740C0071205FDAE82D0077D00903A00E0FBA3E0FC903A00EF2BF0ED56
:200802003CA3F08E8222AF82903A00E0F50DA3E0F50E8F0F90E740C00712070FD0077E00D9
:20082200903A00E0FCA3E0FD903A00EF2CF0EE3DA3F022AE82AF837D00E5117003F58222FA
:200842007508647509007582A6C007C006C005120594E582D005D006D0076003020927908F
:20086200E679E510F0C007C006C005120506E582D005D006D007600302092790E678E0FC7B
:2008820074404CF0C007C006C00512057C90E678E0FC74804CF012056490E67974A7F01200
:2008A2000506E582D005D006D007707990E679E08E828F83F0C007C006C005120537E58271
:2008C200D005D006D007705DFCC3EC9511502A90E679E08E828F83F0A3AE82AF83C007C08F
:2008E20006C005C004120537E582D004D005D006D00770310C8C0580D090E678E0FF74206D
:200902004FF090E679E0C005120537E582D005701490E678E0FF74404FF090E679E0C005A0
:2009220012057CD0058D8222AE82AF837D00E5137003F582227508647509007582A6C00776
:20094200C006C005120594E582D005D006D0076003020A1D90E679E512F0C007C006C005C2
:20096200120506E582D005D006D0076003020A1DAC127B00C3EB95134003020A0D8E828F59
:2009820083E0FAA3AE82AF8390E679EAF0C007C006C005C004C003120506E582D003D00426
:2009A200D005D006D00770730C8C120B8B05EC20E3C2C3EB951350BC90E678E0FA74404AB2
:2009C200F0C007C006C005C004C00312057C7508647509007582A6120594E582D003D00404
:2009E200D005D006D007703390E679ECF0C007C006C005C004C003120506E582D003D00401
:200A0200D005D006D007701302097690E678E0FF74404FF0C00512057CD005903A05E5129B
:200A2200F08D8222903A19E0FF903A05E0F5108F1190E740C007120835AE82D007903A05DA
:200A4200E02FF08E822275B11F75B6FF903A0EE4F0903A0DF0903A0F7410F0903A10F090DA
:200A62003A11C4F02290E6017480F00000000090E670E4F090E671F0D2A243B40453B2BF34
:200A820053B4FDC2A343B40843B2AEC28543808E903A11E0F4FF53070F903A10E04FF5B1EB
:200AA20075B6FF900001120263C287C281903A10E0FF740F4FF5B153B4FB7E007F0020A284
:200AC20010C3EE94FFEF94FF50070EBE00F00F80ED30A2047FC880027F64903A0CEFF090E8
:200AE2003A08E4F0A3F0A3F0A3F0903A07F022020A67020363903A0CE02416F07F00D281B5
:200B0200C2810FBFFF0040F6D287D284C284D284C284D284C284D284C28453B27153B4F750
:200B220075B6F0903A11E0FF55B1FEB50703120AF4903A0FE0FF740F4FF5B175B6FF22850A
:200B4200B31475B3FF903A19E0FE903A08E0FAA3E0FBA3E0FCA3E0FD8E0079007E007F00B7
:200B6200903A08E82AF0E93BA3F0EE3CA3F0EF3DA3F090E68BE06022FA759B40759AE77554
:200B8200AF07903A07E0F990E67BE0F590D28129F9C281DAF5903A07E9F08514B390E68B1F
:200BA200E0FFBF40005003020AF72290E60174C2F090E6F3E4F090E6C3F090E6C1F090E63D
:200BC200C27420F090E6C0744EF090E6F4E4F0759B1A7E1A7F3A8F068E9A759E607E607F9F
:200BE200E48F068E9DC0027A201202B9D00290E6C6E4F090E6C77410F090E6C8E4F090E60B
:200C0200C9F090E6CAF090E6CBF090E6CCF090E6CDF090E60B04F00000000090E604748070
:200C2200F00000000090E6047406F00000000090E604E4F00000000090E61AE4F00000002C
:200C42000090E61A7410F00000000090E6E27401F00000000090E6CE7401F0000000009098
:200C6200E6CFE4F00000000090E6D0E4F00000000090E6D1E4F00000000090E6E474FFF0F7
:200C820000000000C28322AF82903A0DE0FE903A0EF0903A0D74035FF08FF005F074108028
:180CA2000225E0D5F0FBFF903A0FF0903A10EFF0740FF5B14FF5B122B2
:20006C0028015A5445580A0F00000001E300000000000000000000000000000000003030A3
:08008C003030303030303030EC
:200CBA002290E678E0FF74804FF012056490E6797490F0120506E58260012290E6797444EC
:200CDA00F0120506E58260012290E6797414F090E678E0FF74404FF012057CE5826001225F
:200CFA00900079E04401F02290E683E4F07420F003F07430F07401F07421F07411F07431BE
:200D1A00F07412F07432F07406F07426F022AF82E51624E0500375161F90E6BFE070109055
:200D3A00E6BEE0FEC39516500690E6BEE0F51675AF078F9B85159A7E407FE7EE04F59E7E84
:200D5A00407FE70EBE00010F8F9D90E67C7403F07F00C3EF9516500E90E67BE0FE90E67C77
:200D7A00F0E4F00F80ECE5160425E0FF90E740F090E7417403F090E68AE4F090E68BEFF09D
:200D9A0022903A17E0FEA3E0FFC374409EE49F50067C407D0080048E048F05903A19ECF046
:200DBA007D00903A17EEC39CF0EF9DA3F022903A5AE0FFBF3103020E92BF320122BF34039B
:200DDA00020E95BF3503020EAABF3903020E65BF3C03020E89BF5103020EC6BF80028040B2
:200DFA00BF82028012BF86028047BF8B02801CBF8E02804E020EEB7582821203D0C28190C5
:200E1A00E6BAE0F5A0D28100C281227582811203D075828B1203D01202C87582800203D0FF
:200E3A0090E6BAE060047F8080027F818F820203D090E6BAE060047F8680027F878F8202A9
:200E5A0003D090E6BAE0F582020483903A04E4F0903A02F0A3F090E6BBE0FE7F0090E6BAE6
:200E7A00E0FD7C00903A00ED4FF0EC4EA3F02290E6BAE0903A05F022020AF1120AF190E6A9
:200E9A00A5E0FF74FE5FF090E6F574FFF0020BADD28390E6F574FFF00000000090E601E0F1
:200EBA00FF74F05FF000000000020AF790E6BCE0FFBF0108903A1074F0F0800990E6BAE0C3
:200EDA00F582120C89903A10E0C4540F903A11F02290E6A0E0FF74014FF022C021C0E0C000
:200EFA00F0C082C083C007C006C005C004C003C002C001C000C0D075D00090E6B9E0FF90D4
:200F1A003A5AF090E6B57401F090E6B9E0FF24F350030212C6EFF5F0240B83F582E5F0245B
:200F3A001183F583E4735A0EC68EC6C6295B5D6D7282870F10121012121112121212121241
:200F5A0090E6B8E0FFBF8002800DBF8102801EBF8202802F0212C690E740E4F090E741F0BD
:200F7A0090E68AF090E68B7402F00212C690E740E4F090E741F090E68AF090E68B7402F09C
:200F9A000212C690E6BCE0FF600FBF01028019BF80028005BF812F801E90E6A0E0FF530760
:200FBA000190E740EFF0803A90E6A1E0FF53070190E740EFF0802B90E6A2E0FF5307019052
:200FDA00E740EFF0801C90E6BCE0C31314540324A3F582E434E6F583E0FF53070190E7405D
:200FFA00EFF090E741E4F090E68AF090E68B7402F00212C690E6B8E0FFBF020280030212D4
:20101A00C690E6BAE060030212C690E6BCE0FF600FBF01028016BF80028005BF8126801807
:20103A0090E6A0E0FF74FE5FF00212C690E6A1E0FF74FE5FF00212C690E6A2E0FF74FE5FAD
:20105A00F00212C690E6BCE0C31314540324A3FEE434E6FF90E6BCE0C31314540324A3F588
:20107A0082E434E6F583E0FD5305FE8E828F83EDF00212C690E6B8E0FFBF020280030212EB
:20109A00C690E6BAE060030212C690E6BCE0FF600FBF01028015BF80028005BF812380168D
:2010BA0090E6A0E0FF74014FF0804390E6A1E0FF74014FF0803890E6A2E0FF74014FF0801D
:2010DA002D90E6BCE0C31314540324A3FEE434E6FF90E6BCE0C31314540324A3F582E4340B
:2010FA00E6F583E0FD4305FE8E828F83EDF090E6BCE05480C423541FFF90E6BCE0FE740F84
:20111A005E420790E683EFF074204FF00212C690E6BBE0FFBF01028019BF02028028BF03F1
:20113A00028053BF060302120DBF07030212210212507E587F1B8F0690E6B3EEF090E6B43F
:20115A007458F00212C690E680E0FF30E7147E747F1B8F0690E6B3EEF090E6B47474F002B3
:20117A0012C67EA47F1B8F0690E6B3EEF090E6B474A4F00212C690E6BAE0FFBF0102800FB9
:20119A00BF0202801EBF0302802DBF0452803C7582337E337F1B8F068E15751605120D280E
:2011BA000212C67582387E387F1B8F068E15751617120D280212C675828A7E8A7F008F0624
:2011DA008E1575160A120D280212C675824F7E4F7F1B8F068E15751608120D280212C67E85
:2011FA00D47F1B8F0690E6B3EEF090E6B474D4F00212C67E6A7F1B8F0690E6B3EEF090E6FB
:20121A00B4746AF00212C690E680E0FF30E7147EA47F1B8F0690E6B3EEF090E6B474A4F0CE
:20123A000212C67E747F1B8F0690E6B3EEF090E6B47474F0807690E6A0E0FF74014FF08071
:20125A006B806990E740E4F090E68AF090E68B04F08059120D02805490E740E4F090E68A57
:20127A00F090E68B04F08044120D02803F90E6B8E0FFBF823790E6BCE0C31314540375F08E
:20129A0002A4245CF582743A35F0F583E4F0A3F090E685E090E740F090E684E0FF90E741D2
:2012BA00F090E68AE4F090E68B7402F090E6B8E0FFBF4003021589BFC00280030215B390DC
:2012DA00E6BFE0FE7F0090E6BEE0FD7C00903A17ED4FF0EC4EA3F0120D9B90E6B9E0FFBF04
:2012FA0022028047BF3003021448BF33030214A8BF38030213A7BF3A030213D0BF3B030250
:20131A00140FBF3D03021428BF50030214C0BF58030214E1BF8402802FBF85028042BF8817
:20133A00028055BF8C02805902157E90E6B5E4F090E68AF090E68B7428F090E6B3E4F090F8
:20135A00E6B4746CF00215B37582841203D0903A19E0F5157582001203E11204250215B320
:20137A007582851203D0903A19E0F5157582001203E11204250215B3120433120425021598
:20139A00B390E6BAE0F5821204D40215B390E6BBE0FE7F0090E6BAE0FD7C00903A00ED4F28
:2013BA00F0EC4EA3F090E68AE4F01207D4E58290E68BF00215B3903A02E0FEA3E090E7408F
:2013DA00EEF0903A02E0A3E090E741F0903A04E090E742F07508007509017582A2120594A7
:2013FA00AF8290E743EFF090E68AE4F090E68B7404F00215B390E6BAE0903A05F090E68A33
:20141A00E4F0120A26E58290E68BF00215B37508007509017582A6120594AF8290E740EF5F
:20143A00F090E68AE4F090E68B04F00215B3759B077E077F3A8F068E9A759E417E417FE784
:20145A008F068E9DC0027A061202B9D00275B6F0903A11E0FF55B1FEB5071490E740E4F09D
:20147A00903A0FE0FF740F4FF5B175B6FF800990E7407401F0120A6790E747E4F090E7487F
:20149A00F090E68AF090E68B7409F00215B390E7407406F090E741E4F090E68AF090E68B7C
:2014BA007402F00215B390E7407403F0903A0DE0FF90E741F090E742E4F090E68AF090E673
:2014DA008B7403F00215B390E678E0FF74804FF012056490E6797491F012050690E740748F
:2014FA0001F090E679E090E741F012053790E679E090E741F012053790E679E090E742F0DF
:20151A0012053790E679E090E743F012053790E679E090E744F012053790E679E090E7414D
:20153A00F012053790E679E090E742F012053790E678E0FF74204FF090E679E090E743F074
:20155A0012053790E678E0FF74404FF090E679E090E744F012057C90E68AE4F090E68B740D
:20157A0005F0803590E6A0E0FF74014FF0802A90E6BFE0700690E6BEE06016903A5B7401A5
:20159A00F090E68BE4F05391EF90E65D7401F0801A120DC890E68BE4F05391EF90E65D74F1
:2015BA0001F090E6A0E0FF74804FF0D0D0D000D001D002D003D004D005D006D007D083D099
:2015DA0082D0F0D0E0D02132C0E0C082C0835391EF90E65D7402F0D083D082D0E032C0E084
:2015FA00C082C0835391EF90E65D7404F0D083D082D0E032C0E0C082C0835391EF90E65DEC
:20161A007408F0D083D082D0E032C0E0C082C0835391EF90E65D7410F0D083D082D0E032F7
:20163A00C0E0C082C0835391EF90E65D7420F0D083D082D0E032C0E0C082C0835391EF9032
:20165A00E65D7440F0D083D082D0E032C021C0E0C0F0C082C083C007C006C005C004C00373
:20167A00C002C001C000C0D075D000C2E8120D9B903A5AE0FFBF30028060BF3302805BBF72
:20169A003802802DBF3A028051BF3B028033BF3D028047BF50028042BF5802803DBF84021B
:2016BA008038BF85028033BF8802802EBF8C22802990E68AE4F01207D4E58290E68BF080B9
:2016DA001990E68AE4F0120A26E58290E68BF0800990E68AE4F090E68BF05391EF90E65F73
:2016FA007401F0D2E8D0D0D000D001D002D003D004D005D006D007D083D082D0F0D0E0D090
:20171A002132C021C0E0C0F0C082C083C007C006C005C004C003C002C001C000C0D075D0B5
:20173A0000C2E8903A5BE06020903A5BE4F090E6BFE0FE7F0090E6BEE0FD7C00903A17ED7A
:20175A004FF0EC4EA3F0120DC8120D9B903A5AE0FFBF31028054BF32028049BF3402804A7E
:20177A00BF35028045BF3902801BBF3C028021BF51028035BF80028031BF8202802CE4BF16
:20179A00860104802590E68BE0F582120808801A903A05E0F51290E68BE0F51390E7401283
:2017BA00092A8006120B4180010090E68BE4F05391EF90E65F7402F0903A17E0F5F0A3E06B
:2017DA0045F0700990E6A0E0FF74804FF0D2E8D0D0D000D001D002D003D004D005D006D02A
:2017FA0007D083D082D0F0D0E0D02132C0E0C082C0835391EF90E65F7404F0D083D082D0E6
:20181A00E032C0E0C082C0835391EF90E65F7408F0D083D082D0E032C0E0C082C0835391D3
:20183A00EF90E65F7410F0D083D082D0E032C0E0C082C0835391EF90E65F7420F0D083D05B
:20185A0082D0E032C0E0C082C0835391EF90E65F7440F0D083D082D0E032C0E0C082C083ED
:20187A005391EF90E65F7480F0D083D082D0E032751000751103903A12120835903A12E046
:20189A00FFBF4324903A13E0FFBF441C903A14E0FFBF3014903A067401F075101075110A14
:2018BA0090008A1208358005903A06E4F07F00EF248AF582E43400F583E0FEBE30550FBF6A
:2018DA000A0040EB7510FB751105903A121208357F007E00EE2412F582E4343AF583E0FD44
:2018FA00EF248AFBE43400FCEDC4540F901BD893FA8B828C83F00FEF248AFBE43400FC74C3
:20191A000F5D901BD893FD8B828C83F00F0EBE050040C12290E680E0FF74084FF090E60019
:20193A007412F0900002120263538EF8120A48C2AFC2E89000437402F090004414F0900015
:20195A004574B8F090E668E0FF74084FF09001007402F07EF57F0E8F05900101EDF0900109
:20197A0002EEF09001047402F07EE27F158F05900105EDF0900106EEF09001087402F07E85
:20199A00F87F158F05900109EDF090010AEEF090010C7402F07E0E7F168F0590010DEDF0EA
:2019BA0090010EEEF09001107402F07E247F168F05900111EDF0900112EEF09001147402A3
:2019DA00F07E3A7F168F05900115EDF0900116EEF09001187402F07E507F168F0590011964
:2019FA00EDF090011AEEF09001207402F07E667F168F05900121EDF0900122EEF09001246E
:201A1A007402F07E1C7F178F05900125EDF0900126EEF09001287402F07E067F188F0590FC
:201A3A000129EDF090012AEEF090012C7402F07E1C7F188F0590012DEDF090012EEEF0903C
:201A5A0001307402F07E327F188F05900131EDF0900132EEF09001347402F07E487F188FA3
:201A7A0005900135EDF0900136EEF09001387402F07E5E7F188F05900139EDF090013AEE69
:201A9A00F090013C7402F07E747F188F0590013DEDF090013EEEF05391EF90E65D747FF00B
:201ABA0090E65CE0FF747F4FF090E65F74FFF090E65EF0D2E8D2AF90E61174A0F000000067
:201ADA000090E61074A0F00000000090E61274E0F00000000090E613E4F00000000090E6C3
:201AFA001474A0F00000000090E615E4F00000000012188A120CBB90E680E0FF74824FF0BE
:151B1A0090000A12026390E680E0FF74F75FF02212192E80FE1D
:201B33005A54455800696E6F7574747261666669632055464D20312E313579006465666143
:201B5300756C74000012010002FFFFFF401A2200010000010203010A060002FFFFFF400137
:201B73000009022E00010104C0320904000004FFFFFF000705810200020007050102000271
:201B9300000705820200020007050602000200000009022E00010104C0320904000004FF49
:201BB300FFFF000705810240000007050102400000070582024000000705060240000000D2
:201BD3000004030000303132333435363738394142434445460000000001880101010101BB
:201BF3000702070202020202002000000000000020003600000000003F020190010101016C
:201C13000702020702020202002000000000000020000036000000003FFF000000000000E3
:031C3300000000AE
:06023500E478FFF6D8FD9D
:20021300794DE94400601B7A01901BE9781775923AE493F2A308B800020592D9F4DAF2750B
:0202330092FF38
:20023B007800E84400600A790075923AE4F309D8FC7817E84400600C7901903A00E4F0A345
:04025B00D8FCD9FAF8
:0D020600758121121B2FE5826003020203A7
:041B2F007582002299
:00000001FF
